{
  "address": "0x2122c6342445f7c2F22d5F6B2972992c3Ca92aB2",
  "abi": [
    {
      "inputs": [],
      "name": "complete",
      "outputs": [],
      "stateMutability": "payable",
      "type": "function"
    },
    {
      "inputs": [],
      "name": "completed",
      "outputs": [
        {
          "internalType": "bool",
          "name": "",
          "type": "bool"
        }
      ],
      "stateMutability": "view",
      "type": "function"
    }
  ],
  "transactionHash": "0x62f07dc119a612caaab5bbddc6ef4068510926c7079a0acc1ae5e3a1295aa7c5",
  "args": [],
  "numDeployments": 1,
  "solcInputHash": "1132e34024e82f9a9d6154344e0e4ef2",
  "bytecode": "0x6080604052348015600f57600080fd5b5060a08061001e6000396000f3fe60806040526004361060265760003560e01c8063522e117714602b5780639d9a7fe914603e575b600080fd5b603c6000805460ff19166001179055565b005b348015604957600080fd5b5060005460569060ff1681565b604051901515815260200160405180910390f3fea2646970667358221220c4e80ad9d447948c5d9a429b3c3d2e7bcc49fed3f8ed1ebeb527207c5cc811bd64736f6c63430008140033",
  "devdoc": {
    "kind": "dev",
    "methods": {},
    "version": 1
  },
  "userdoc": {
    "kind": "user",
    "methods": {},
    "version": 1
  },
  "storageLayout": {
    "storage": [
      {
        "astId": 3,
        "contract": "contracts/ExampleExternalContract.sol:ExampleExternalContract",
        "label": "completed",
        "offset": 0,
        "slot": "0",
        "type": "t_bool"
      }
    ],
    "types": {
      "t_bool": {
        "encoding": "inplace",
        "label": "bool",
        "numberOfBytes": "1"
      }
    }
  }
}