{
  "address": "0x033f6d5319C3af05c147513F277846a10fefaeEc",
  "abi": [
    {
      "inputs": [
        {
          "internalType": "address",
          "name": "exampleExternalContractAddress",
          "type": "address"
        }
      ],
      "stateMutability": "nonpayable",
      "type": "constructor"
    },
    {
      "anonymous": false,
      "inputs": [
        {
          "indexed": true,
          "internalType": "address",
          "name": "sender",
          "type": "address"
        },
        {
          "indexed": false,
          "internalType": "uint256",
          "name": "amount",
          "type": "uint256"
        }
      ],
      "name": "Stake",
      "type": "event"
    },
    {
      "inputs": [
        {
          "internalType": "address",
          "name": "",
          "type": "address"
        }
      ],
      "name": "balances",
      "outputs": [
        {
          "internalType": "uint256",
          "name": "",
          "type": "uint256"
        }
      ],
      "stateMutability": "view",
      "type": "function"
    },
    {
      "inputs": [],
      "name": "completed",
      "outputs": [
        {
          "internalType": "bool",
          "name": "",
          "type": "bool"
        }
      ],
      "stateMutability": "view",
      "type": "function"
    },
    {
      "inputs": [],
      "name": "deadline",
      "outputs": [
        {
          "internalType": "uint256",
          "name": "",
          "type": "uint256"
        }
      ],
      "stateMutability": "view",
      "type": "function"
    },
    {
      "inputs": [],
      "name": "exampleExternalContract",
      "outputs": [
        {
          "internalType": "contract ExampleExternalContract",
          "name": "",
          "type": "address"
        }
      ],
      "stateMutability": "view",
      "type": "function"
    },
    {
      "inputs": [],
      "name": "execute",
      "outputs": [],
      "stateMutability": "nonpayable",
      "type": "function"
    },
    {
      "inputs": [],
      "name": "openForWithdrawal",
      "outputs": [
        {
          "internalType": "bool",
          "name": "",
          "type": "bool"
        }
      ],
      "stateMutability": "view",
      "type": "function"
    },
    {
      "inputs": [],
      "name": "stake",
      "outputs": [],
      "stateMutability": "payable",
      "type": "function"
    },
    {
      "inputs": [],
      "name": "threshold",
      "outputs": [
        {
          "internalType": "uint256",
          "name": "",
          "type": "uint256"
        }
      ],
      "stateMutability": "view",
      "type": "function"
    },
    {
      "inputs": [],
      "name": "timeLeft",
      "outputs": [
        {
          "internalType": "uint256",
          "name": "",
          "type": "uint256"
        }
      ],
      "stateMutability": "view",
      "type": "function"
    },
    {
      "inputs": [],
      "name": "withdraw",
      "outputs": [],
      "stateMutability": "nonpayable",
      "type": "function"
    },
    {
      "stateMutability": "payable",
      "type": "receive"
    }
  ],
  "transactionHash": "0x16b6152fe34e3160c99b2a397e14324675ea8832034b27de8193f12683a172b3",
  "args": [
    "0x2122c6342445f7c2F22d5F6B2972992c3Ca92aB2"
  ],
  "numDeployments": 1,
  "solcInputHash": "756ef9506cef5e5a245ad6f6fef4c04c",
  "bytecode": "0x608060405261000f42601e61006d565b6002556003805461ffff1916905534801561002957600080fd5b5060405161060238038061060283398101604081905261004891610094565b600080546001600160a01b0319166001600160a01b03929092169190911790556100c4565b8082018082111561008e57634e487b7160e01b600052601160045260246000fd5b92915050565b6000602082840312156100a657600080fd5b81516001600160a01b03811681146100bd57600080fd5b9392505050565b61052f806100d36000396000f3fe6080604052600436106100955760003560e01c806342cde4e81161005957806342cde4e814610131578063614619541461014d5780639d9a7fe9146101625780639f75f22714610191578063a4778fde146101c957600080fd5b80631300a6d1146100a957806327e235e3146100d157806329dcb0cf146100fe5780633a4b66f1146101145780633ccfd60b1461011c57600080fd5b366100a4576100a26101e3565b005b600080fd5b3480156100b557600080fd5b506100be61029b565b6040519081526020015b60405180910390f35b3480156100dd57600080fd5b506100be6100ec366004610487565b60016020526000908152604090205481565b34801561010a57600080fd5b506100be60025481565b6100a26101e3565b34801561012857600080fd5b506100a26102bf565b34801561013d57600080fd5b506100be670de0b6b3a764000081565b34801561015957600080fd5b506100a261034f565b34801561016e57600080fd5b5060035461018190610100900460ff1681565b60405190151581526020016100c8565b34801561019d57600080fd5b506000546101b1906001600160a01b031681565b6040516001600160a01b0390911681526020016100c8565b3480156101d557600080fd5b506003546101819060ff1681565b600354610100900460ff16156102405760405162461bcd60e51b815260206004820152601d60248201527f436f6e747261637420697320616c726561647920636f6d706c6574656400000060448201526064015b60405180910390fd5b336000908152600160205260408120805434929061025f9084906104cd565b909155505060405134815233907febedb8b3c678666e7f36970bc8f57abf6d8fa2e828c0da91ea5b75bf68ed101a9060200160405180910390a2565b600060025442106102ac5750600090565b426002546102ba91906104e6565b905090565b60035460ff1661030a5760405162461bcd60e51b81526020600482015260166024820152752bb4ba34323930bbb0b61034b9903737ba1037b832b760511b6044820152606401610237565b33600081815260016020526040808220805490839055905190929183156108fc02918491818181858888f1935050505015801561034b573d6000803e3d6000fd5b5050565b600354610100900460ff161561039b5760405162461bcd60e51b8152602060048201526011602482015270105b1c9958591e4818dbdb5c1b195d1959607a1b6044820152606401610237565b6002544210156103ed5760405162461bcd60e51b815260206004820152601760248201527f446561646c696e6520686173206e6f74207061737365640000000000000000006044820152606401610237565b670de0b6b3a764000047106104685760008054906101000a90046001600160a01b03166001600160a01b031663522e1177476040518263ffffffff1660e01b81526004016000604051808303818588803b15801561044a57600080fd5b505af115801561045e573d6000803e3d6000fd5b5050505050610476565b6003805460ff191660011790555b6003805461ff001916610100179055565b60006020828403121561049957600080fd5b81356001600160a01b03811681146104b057600080fd5b9392505050565b634e487b7160e01b600052601160045260246000fd5b808201808211156104e0576104e06104b7565b92915050565b818103818111156104e0576104e06104b756fea264697066735822122056c23b2082ab8befc7235b92b99b37d13ea5c568283c1b8fc13dd57157ad5e2364736f6c63430008140033",
  "devdoc": {
    "kind": "dev",
    "methods": {},
    "version": 1
  },
  "userdoc": {
    "kind": "user",
    "methods": {},
    "version": 1
  },
  "storageLayout": {
    "storage": [
      {
        "astId": 19,
        "contract": "contracts/Staker.sol:Staker",
        "label": "exampleExternalContract",
        "offset": 0,
        "slot": "0",
        "type": "t_contract(ExampleExternalContract)12"
      },
      {
        "astId": 38,
        "contract": "contracts/Staker.sol:Staker",
        "label": "balances",
        "offset": 0,
        "slot": "1",
        "type": "t_mapping(t_address,t_uint256)"
      },
      {
        "astId": 75,
        "contract": "contracts/Staker.sol:Staker",
        "label": "deadline",
        "offset": 0,
        "slot": "2",
        "type": "t_uint256"
      },
      {
        "astId": 78,
        "contract": "contracts/Staker.sol:Staker",
        "label": "openForWithdrawal",
        "offset": 0,
        "slot": "3",
        "type": "t_bool"
      },
      {
        "astId": 81,
        "contract": "contracts/Staker.sol:Staker",
        "label": "completed",
        "offset": 1,
        "slot": "3",
        "type": "t_bool"
      }
    ],
    "types": {
      "t_address": {
        "encoding": "inplace",
        "label": "address",
        "numberOfBytes": "20"
      },
      "t_bool": {
        "encoding": "inplace",
        "label": "bool",
        "numberOfBytes": "1"
      },
      "t_contract(ExampleExternalContract)12": {
        "encoding": "inplace",
        "label": "contract ExampleExternalContract",
        "numberOfBytes": "20"
      },
      "t_mapping(t_address,t_uint256)": {
        "encoding": "mapping",
        "key": "t_address",
        "label": "mapping(address => uint256)",
        "numberOfBytes": "32",
        "value": "t_uint256"
      },
      "t_uint256": {
        "encoding": "inplace",
        "label": "uint256",
        "numberOfBytes": "32"
      }
    }
  }
}